{
  "_format": "hh-sol-artifact-1",
  "contractName": "DbankFactory",
  "sourceName": "src/backend/contracts/DbankFactory.sol",
  "abi": [
    {
      "inputs": [],
      "stateMutability": "nonpayable",
      "type": "constructor"
    },
    {
      "inputs": [
        {
          "internalType": "uint256",
          "name": "rate",
          "type": "uint256"
        },
        {
          "internalType": "address",
          "name": "bankId",
          "type": "address"
        }
      ],
      "name": "addBank",
      "outputs": [],
      "stateMutability": "nonpayable",
      "type": "function"
    },
    {
      "inputs": [
        {
          "internalType": "address payable",
          "name": "_user",
          "type": "address"
        }
      ],
      "name": "addUser",
      "outputs": [],
      "stateMutability": "nonpayable",
      "type": "function"
    },
    {
      "inputs": [
        {
          "internalType": "uint256",
          "name": "",
          "type": "uint256"
        }
      ],
      "name": "banks",
      "outputs": [
        {
          "internalType": "address payable",
          "name": "",
          "type": "address"
        }
      ],
      "stateMutability": "view",
      "type": "function"
    },
    {
      "inputs": [],
      "name": "getBankList",
      "outputs": [
        {
          "internalType": "address payable[]",
          "name": "",
          "type": "address[]"
        }
      ],
      "stateMutability": "view",
      "type": "function"
    },
    {
      "inputs": [
        {
          "internalType": "address",
          "name": "",
          "type": "address"
        }
      ],
      "name": "users",
      "outputs": [
        {
          "internalType": "bool",
          "name": "kyc",
          "type": "bool"
        },
        {
          "internalType": "bool",
          "name": "blacklist",
          "type": "bool"
        }
      ],
      "stateMutability": "view",
      "type": "function"
    }
  ],
  "bytecode": "0x608060405234801561001057600080fd5b5033600260006101000a81548173ffffffffffffffffffffffffffffffffffffffff021916908373ffffffffffffffffffffffffffffffffffffffff1602179055506121ef806100616000396000f3fe60806040523480156200001157600080fd5b50600436106200005d5760003560e01c806285ae2b1462000062578063421b2d8b14620000985780637ec06c9f14620000b857806392110c2714620000d8578063a87430ba14620000fa575b600080fd5b6200008060048036038101906200007a919062000511565b62000131565b6040516200008f919062000588565b60405180910390f35b620000b66004803603810190620000b09190620005d6565b62000171565b005b620000d66004803603810190620000d091906200064d565b620002bb565b005b620000e2620003f5565b604051620000f1919062000762565b60405180910390f35b62000118600480360381019062000112919062000786565b62000485565b60405162000128929190620007d5565b60405180910390f35b600181815481106200014257600080fd5b906000526020600020016000915054906101000a900473ffffffffffffffffffffffffffffffffffffffff1681565b600260009054906101000a900473ffffffffffffffffffffffffffffffffffffffff1673ffffffffffffffffffffffffffffffffffffffff163373ffffffffffffffffffffffffffffffffffffffff161462000204576040517f08c379a0000000000000000000000000000000000000000000000000000000008152600401620001fb9062000863565b60405180910390fd5b60016000808373ffffffffffffffffffffffffffffffffffffffff1673ffffffffffffffffffffffffffffffffffffffff16815260200190815260200160002060000160006101000a81548160ff02191690831515021790555060008060008373ffffffffffffffffffffffffffffffffffffffff1673ffffffffffffffffffffffffffffffffffffffff16815260200190815260200160002060000160016101000a81548160ff02191690831515021790555050565b600260009054906101000a900473ffffffffffffffffffffffffffffffffffffffff1673ffffffffffffffffffffffffffffffffffffffff163373ffffffffffffffffffffffffffffffffffffffff16146200034e576040517f08c379a0000000000000000000000000000000000000000000000000000000008152600401620003459062000863565b60405180910390fd5b600082826040516200036090620004c3565b6200036d929190620008a7565b604051809103906000f0801580156200038a573d6000803e3d6000fd5b5090506001819080600181540180825580915050600190039060005260206000200160009091909190916101000a81548173ffffffffffffffffffffffffffffffffffffffff021916908373ffffffffffffffffffffffffffffffffffffffff160217905550505050565b606060018054806020026020016040519081016040528092919081815260200182805480156200047b57602002820191906000526020600020905b8160009054906101000a900473ffffffffffffffffffffffffffffffffffffffff1673ffffffffffffffffffffffffffffffffffffffff168152602001906001019080831162000430575b5050505050905090565b60006020528060005260406000206000915090508060000160009054906101000a900460ff16908060000160019054906101000a900460ff16905082565b6118e580620008d583390190565b600080fd5b6000819050919050565b620004eb81620004d6565b8114620004f757600080fd5b50565b6000813590506200050b81620004e0565b92915050565b6000602082840312156200052a5762000529620004d1565b5b60006200053a84828501620004fa565b91505092915050565b600073ffffffffffffffffffffffffffffffffffffffff82169050919050565b6000620005708262000543565b9050919050565b620005828162000563565b82525050565b60006020820190506200059f600083018462000577565b92915050565b620005b08162000563565b8114620005bc57600080fd5b50565b600081359050620005d081620005a5565b92915050565b600060208284031215620005ef57620005ee620004d1565b5b6000620005ff84828501620005bf565b91505092915050565b6000620006158262000543565b9050919050565b620006278162000608565b81146200063357600080fd5b50565b60008135905062000647816200061c565b92915050565b60008060408385031215620006675762000666620004d1565b5b60006200067785828601620004fa565b92505060206200068a8582860162000636565b9150509250929050565b600081519050919050565b600082825260208201905092915050565b6000819050602082019050919050565b620006cb8162000563565b82525050565b6000620006df8383620006c0565b60208301905092915050565b6000602082019050919050565b6000620007058262000694565b6200071181856200069f565b93506200071e83620006b0565b8060005b8381101562000755578151620007398882620006d1565b97506200074683620006eb565b92505060018101905062000722565b5085935050505092915050565b600060208201905081810360008301526200077e8184620006f8565b905092915050565b6000602082840312156200079f576200079e620004d1565b5b6000620007af8482850162000636565b91505092915050565b60008115159050919050565b620007cf81620007b8565b82525050565b6000604082019050620007ec6000830185620007c4565b620007fb6020830184620007c4565b9392505050565b600082825260208201905092915050565b7f4f6e6c7920616363657369626c6520746f206f776e6572000000000000000000600082015250565b60006200084b60178362000802565b9150620008588262000813565b602082019050919050565b600060208201905081810360008301526200087e816200083c565b9050919050565b6200089081620004d6565b82525050565b620008a18162000608565b82525050565b6000604082019050620008be600083018562000885565b620008cd602083018462000896565b939250505056fe60806040523480156200001157600080fd5b50604051620018e5380380620018e58339818101604052810190620000379190620002a4565b620000576200004b6200013160201b60201c565b6200013960201b60201c565b80600360006101000a81548173ffffffffffffffffffffffffffffffffffffffff021916908373ffffffffffffffffffffffffffffffffffffffff160217905550600460009054906101000a900473ffffffffffffffffffffffffffffffffffffffff1673ffffffffffffffffffffffffffffffffffffffff16631d086720836040518263ffffffff1660e01b8152600401620000f59190620002fc565b600060405180830381600087803b1580156200011057600080fd5b505af115801562000125573d6000803e3d6000fd5b50505050505062000319565b600033905090565b6000600260009054906101000a900473ffffffffffffffffffffffffffffffffffffffff16905081600260006101000a81548173ffffffffffffffffffffffffffffffffffffffff021916908373ffffffffffffffffffffffffffffffffffffffff1602179055508173ffffffffffffffffffffffffffffffffffffffff168173ffffffffffffffffffffffffffffffffffffffff167f8be0079c531659141344cd1fd0a4f28419497f9722a3daafe3b4186f6b6457e060405160405180910390a35050565b600080fd5b6000819050919050565b620002198162000204565b81146200022557600080fd5b50565b60008151905062000239816200020e565b92915050565b600073ffffffffffffffffffffffffffffffffffffffff82169050919050565b60006200026c826200023f565b9050919050565b6200027e816200025f565b81146200028a57600080fd5b50565b6000815190506200029e8162000273565b92915050565b60008060408385031215620002be57620002bd620001ff565b5b6000620002ce8582860162000228565b9250506020620002e1858286016200028d565b9150509250929050565b620002f68162000204565b82525050565b6000602082019050620003136000830184620002eb565b92915050565b6115bc80620003296000396000f3fe6080604052600436106100c15760003560e01c8063785d04f51161007f578063a87430ba11610059578063a87430ba1461022a578063d96a094a14610268578063f2fde38b14610284578063fbfa77cf146102ad576100c1565b8063785d04f5146101c75780638c803fc2146101e35780638da5cb5b146101ff576100c1565b806285ae2b146100c6578063371fd8e614610103578063421b2d8b1461011f57806364bb057f14610148578063715018a61461018557806376cdb03b1461019c575b600080fd5b3480156100d257600080fd5b506100ed60048036038101906100e89190610f13565b6102d8565b6040516100fa9190610f81565b60405180910390f35b61011d60048036038101906101189190610f13565b610317565b005b34801561012b57600080fd5b5061014660048036038101906101419190610fc8565b6103a7565b005b34801561015457600080fd5b5061016f600480360381019061016a9190610f13565b6104ee565b60405161017c9190611004565b60405180910390f35b34801561019157600080fd5b5061019a610598565b005b3480156101a857600080fd5b506101b16105ac565b6040516101be9190611040565b60405180910390f35b6101e160048036038101906101dc9190611087565b6105d2565b005b6101fd60048036038101906101f89190610f13565b610816565b005b34801561020b57600080fd5b50610214610acf565b6040516102219190611040565b60405180910390f35b34801561023657600080fd5b50610251600480360381019061024c91906110c7565b610af9565b60405161025f92919061110f565b60405180910390f35b610282600480360381019061027d9190610f13565b610b37565b005b34801561029057600080fd5b506102ab60048036038101906102a691906110c7565b610ce3565b005b3480156102b957600080fd5b506102c2610d66565b6040516102cf9190611197565b60405180910390f35b600181815481106102e857600080fd5b906000526020600020016000915054906101000a900473ffffffffffffffffffffffffffffffffffffffff1681565b600460009054906101000a900473ffffffffffffffffffffffffffffffffffffffff1673ffffffffffffffffffffffffffffffffffffffff16632e1a7d4d826040518263ffffffff1660e01b81526004016103729190611004565b600060405180830381600087803b15801561038c57600080fd5b505af11580156103a0573d6000803e3d6000fd5b5050505050565b600360009054906101000a900473ffffffffffffffffffffffffffffffffffffffff1673ffffffffffffffffffffffffffffffffffffffff163373ffffffffffffffffffffffffffffffffffffffff1614610437576040517f08c379a000000000000000000000000000000000000000000000000000000000815260040161042e9061120f565b60405180910390fd5b60016000808373ffffffffffffffffffffffffffffffffffffffff1673ffffffffffffffffffffffffffffffffffffffff16815260200190815260200160002060000160006101000a81548160ff02191690831515021790555060008060008373ffffffffffffffffffffffffffffffffffffffff1673ffffffffffffffffffffffffffffffffffffffff16815260200190815260200160002060000160016101000a81548160ff02191690831515021790555050565b600080600460009054906101000a900473ffffffffffffffffffffffffffffffffffffffff1673ffffffffffffffffffffffffffffffffffffffff1663d84549d76040518163ffffffff1660e01b8152600401602060405180830381865afa15801561055e573d6000803e3d6000fd5b505050506040513d601f19601f820116820180604052508101906105829190611244565b9050808361059091906112a0565b915050919050565b6105a0610d8c565b6105aa6000610e0a565b565b600360009054906101000a900473ffffffffffffffffffffffffffffffffffffffff1681565b6000803373ffffffffffffffffffffffffffffffffffffffff1673ffffffffffffffffffffffffffffffffffffffff16815260200190815260200160002060000160019054906101000a900460ff16610660576040517f08c379a00000000000000000000000000000000000000000000000000000000081526004016106579061132e565b60405180910390fd5b6000803373ffffffffffffffffffffffffffffffffffffffff1673ffffffffffffffffffffffffffffffffffffffff16815260200190815260200160002060000160009054906101000a900460ff166106ee576040517f08c379a00000000000000000000000000000000000000000000000000000000081526004016106e59061139a565b60405180910390fd5b600115156000808373ffffffffffffffffffffffffffffffffffffffff1673ffffffffffffffffffffffffffffffffffffffff16815260200190815260200160002060000160009054906101000a900460ff16151514610783576040517f08c379a000000000000000000000000000000000000000000000000000000000815260040161077a9061139a565b60405180910390fd5b600460009054906101000a900473ffffffffffffffffffffffffffffffffffffffff1673ffffffffffffffffffffffffffffffffffffffff1663785d04f583836040518363ffffffff1660e01b81526004016107e09291906113ba565b600060405180830381600087803b1580156107fa57600080fd5b505af115801561080e573d6000803e3d6000fd5b505050505050565b6000803373ffffffffffffffffffffffffffffffffffffffff1673ffffffffffffffffffffffffffffffffffffffff16815260200190815260200160002060000160019054906101000a900460ff166108a4576040517f08c379a000000000000000000000000000000000000000000000000000000000815260040161089b9061132e565b60405180910390fd5b6000803373ffffffffffffffffffffffffffffffffffffffff1673ffffffffffffffffffffffffffffffffffffffff16815260200190815260200160002060000160009054906101000a900460ff16610932576040517f08c379a00000000000000000000000000000000000000000000000000000000081526004016109299061139a565b60405180910390fd5b600460009054906101000a900473ffffffffffffffffffffffffffffffffffffffff1673ffffffffffffffffffffffffffffffffffffffff1663b6b55f25826040518263ffffffff1660e01b815260040161098d9190611004565b600060405180830381600087803b1580156109a757600080fd5b505af11580156109bb573d6000803e3d6000fd5b505050506000600460009054906101000a900473ffffffffffffffffffffffffffffffffffffffff1673ffffffffffffffffffffffffffffffffffffffff16632c4e722e6040518163ffffffff1660e01b8152600401602060405180830381865afa158015610a2e573d6000803e3d6000fd5b505050506040513d601f19601f82011682018060405250810190610a529190611244565b90507f1daae93c0719c540c3891d8a11e5f3b79cbd03028f1fa7e520d31c1a87843335600360009054906101000a900473ffffffffffffffffffffffffffffffffffffffff1682600285610aa69190611412565b600286610ab39190611412565b604051610ac39493929190611443565b60405180910390a15050565b6000600260009054906101000a900473ffffffffffffffffffffffffffffffffffffffff16905090565b60006020528060005260406000206000915090508060000160009054906101000a900460ff16908060000160019054906101000a900460ff16905082565b6000803373ffffffffffffffffffffffffffffffffffffffff1673ffffffffffffffffffffffffffffffffffffffff16815260200190815260200160002060000160019054906101000a900460ff16610bc5576040517f08c379a0000000000000000000000000000000000000000000000000000000008152600401610bbc9061132e565b60405180910390fd5b6000803373ffffffffffffffffffffffffffffffffffffffff1673ffffffffffffffffffffffffffffffffffffffff16815260200190815260200160002060000160009054906101000a900460ff16610c53576040517f08c379a0000000000000000000000000000000000000000000000000000000008152600401610c4a9061139a565b60405180910390fd5b600460009054906101000a900473ffffffffffffffffffffffffffffffffffffffff1673ffffffffffffffffffffffffffffffffffffffff1663d96a094a826040518263ffffffff1660e01b8152600401610cae9190611004565b600060405180830381600087803b158015610cc857600080fd5b505af1158015610cdc573d6000803e3d6000fd5b5050505050565b610ceb610d8c565b600073ffffffffffffffffffffffffffffffffffffffff168173ffffffffffffffffffffffffffffffffffffffff1603610d5a576040517f08c379a0000000000000000000000000000000000000000000000000000000008152600401610d51906114fa565b60405180910390fd5b610d6381610e0a565b50565b600460009054906101000a900473ffffffffffffffffffffffffffffffffffffffff1681565b610d94610ed0565b73ffffffffffffffffffffffffffffffffffffffff16610db2610acf565b73ffffffffffffffffffffffffffffffffffffffff1614610e08576040517f08c379a0000000000000000000000000000000000000000000000000000000008152600401610dff90611566565b60405180910390fd5b565b6000600260009054906101000a900473ffffffffffffffffffffffffffffffffffffffff16905081600260006101000a81548173ffffffffffffffffffffffffffffffffffffffff021916908373ffffffffffffffffffffffffffffffffffffffff1602179055508173ffffffffffffffffffffffffffffffffffffffff168173ffffffffffffffffffffffffffffffffffffffff167f8be0079c531659141344cd1fd0a4f28419497f9722a3daafe3b4186f6b6457e060405160405180910390a35050565b600033905090565b600080fd5b6000819050919050565b610ef081610edd565b8114610efb57600080fd5b50565b600081359050610f0d81610ee7565b92915050565b600060208284031215610f2957610f28610ed8565b5b6000610f3784828501610efe565b91505092915050565b600073ffffffffffffffffffffffffffffffffffffffff82169050919050565b6000610f6b82610f40565b9050919050565b610f7b81610f60565b82525050565b6000602082019050610f966000830184610f72565b92915050565b610fa581610f60565b8114610fb057600080fd5b50565b600081359050610fc281610f9c565b92915050565b600060208284031215610fde57610fdd610ed8565b5b6000610fec84828501610fb3565b91505092915050565b610ffe81610edd565b82525050565b60006020820190506110196000830184610ff5565b92915050565b600061102a82610f40565b9050919050565b61103a8161101f565b82525050565b60006020820190506110556000830184611031565b92915050565b6110648161101f565b811461106f57600080fd5b50565b6000813590506110818161105b565b92915050565b6000806040838503121561109e5761109d610ed8565b5b60006110ac85828601610efe565b92505060206110bd85828601611072565b9150509250929050565b6000602082840312156110dd576110dc610ed8565b5b60006110eb84828501611072565b91505092915050565b60008115159050919050565b611109816110f4565b82525050565b60006040820190506111246000830185611100565b6111316020830184611100565b9392505050565b6000819050919050565b600061115d61115861115384610f40565b611138565b610f40565b9050919050565b600061116f82611142565b9050919050565b600061118182611164565b9050919050565b61119181611176565b82525050565b60006020820190506111ac6000830184611188565b92915050565b600082825260208201905092915050565b7f4f6e6c7920617070726f7665642062792062616e6b0000000000000000000000600082015250565b60006111f96015836111b2565b9150611204826111c3565b602082019050919050565b60006020820190508181036000830152611228816111ec565b9050919050565b60008151905061123e81610ee7565b92915050565b60006020828403121561125a57611259610ed8565b5b60006112688482850161122f565b91505092915050565b7f4e487b7100000000000000000000000000000000000000000000000000000000600052601160045260246000fd5b60006112ab82610edd565b91506112b683610edd565b92508282026112c481610edd565b915082820484148315176112db576112da611271565b5b5092915050565b7f426c61636b6c6973746564000000000000000000000000000000000000000000600082015250565b6000611318600b836111b2565b9150611323826112e2565b602082019050919050565b600060208201905081810360008301526113478161130b565b9050919050565b7f55736572206e6f7420666f756e64000000000000000000000000000000000000600082015250565b6000611384600e836111b2565b915061138f8261134e565b602082019050919050565b600060208201905081810360008301526113b381611377565b9050919050565b60006040820190506113cf6000830185610ff5565b6113dc6020830184611031565b9392505050565b7f4e487b7100000000000000000000000000000000000000000000000000000000600052601260045260246000fd5b600061141d82610edd565b915061142883610edd565b925082611438576114376113e3565b5b828204905092915050565b60006080820190506114586000830187611031565b6114656020830186610ff5565b6114726040830185610ff5565b61147f6060830184610ff5565b95945050505050565b7f4f776e61626c653a206e6577206f776e657220697320746865207a65726f206160008201527f6464726573730000000000000000000000000000000000000000000000000000602082015250565b60006114e46026836111b2565b91506114ef82611488565b604082019050919050565b60006020820190508181036000830152611513816114d7565b9050919050565b7f4f776e61626c653a2063616c6c6572206973206e6f7420746865206f776e6572600082015250565b60006115506020836111b2565b915061155b8261151a565b602082019050919050565b6000602082019050818103600083015261157f81611543565b905091905056fea26469706673582212203c8d748459b0b5d2e63b4d2ea8727f10b734d6db4b5e83303d05cfb31a103d0864736f6c63430008110033a26469706673582212209c121ccafeab969624f9b9f37b7f2bda605f18796a109c3ea162fc54846c716164736f6c63430008110033",
  "linkReferences": {},
  "deployedLinkReferences": {}
}