{
  "_format": "hh-sol-artifact-1",
  "contractName": "DbankFactory",
  "sourceName": "src/backend/contracts/DbankFactory.sol",
  "abi": [
    {
      "inputs": [],
      "stateMutability": "nonpayable",
      "type": "constructor"
    },
    {
      "inputs": [
        {
          "internalType": "uint256",
          "name": "rate",
          "type": "uint256"
        },
        {
          "internalType": "address",
          "name": "bankId",
          "type": "address"
        }
      ],
      "name": "addBank",
      "outputs": [],
      "stateMutability": "nonpayable",
      "type": "function"
    },
    {
      "inputs": [
        {
          "internalType": "address payable",
          "name": "_user",
          "type": "address"
        }
      ],
      "name": "addUser",
      "outputs": [],
      "stateMutability": "nonpayable",
      "type": "function"
    },
    {
      "inputs": [
        {
          "internalType": "uint256",
          "name": "",
          "type": "uint256"
        }
      ],
      "name": "banks",
      "outputs": [
        {
          "internalType": "address",
          "name": "",
          "type": "address"
        }
      ],
      "stateMutability": "view",
      "type": "function"
    },
    {
      "inputs": [],
      "name": "getBankList",
      "outputs": [
        {
          "internalType": "address[]",
          "name": "",
          "type": "address[]"
        }
      ],
      "stateMutability": "view",
      "type": "function"
    },
    {
      "inputs": [],
      "name": "owner",
      "outputs": [
        {
          "internalType": "address",
          "name": "",
          "type": "address"
        }
      ],
      "stateMutability": "view",
      "type": "function"
    },
    {
      "inputs": [
        {
          "internalType": "address",
          "name": "",
          "type": "address"
        }
      ],
      "name": "users",
      "outputs": [
        {
          "internalType": "bool",
          "name": "kyc",
          "type": "bool"
        },
        {
          "internalType": "bool",
          "name": "blacklist",
          "type": "bool"
        }
      ],
      "stateMutability": "view",
      "type": "function"
    }
  ],
  "bytecode": "0x608060405234801561001057600080fd5b5033600260006101000a81548173ffffffffffffffffffffffffffffffffffffffff021916908373ffffffffffffffffffffffffffffffffffffffff16021790555061462c806100616000396000f3fe60806040523480156200001157600080fd5b5060043610620000695760003560e01c806285ae2b146200006e578063421b2d8b14620000a45780637ec06c9f14620000c45780638da5cb5b14620000e457806392110c271462000106578063a87430ba1462000128575b600080fd5b6200008c6004803603810190620000869190620004d2565b6200015f565b6040516200009b919062000549565b60405180910390f35b620000c26004803603810190620000bc9190620005ab565b6200019f565b005b620000e26004803603810190620000dc91906200060e565b620002e9565b005b620000ee62000390565b604051620000fd919062000549565b60405180910390f35b62000110620003b6565b6040516200011f919062000723565b60405180910390f35b62000146600480360381019062000140919062000747565b62000446565b6040516200015692919062000796565b60405180910390f35b600181815481106200017057600080fd5b906000526020600020016000915054906101000a900473ffffffffffffffffffffffffffffffffffffffff1681565b600260009054906101000a900473ffffffffffffffffffffffffffffffffffffffff1673ffffffffffffffffffffffffffffffffffffffff163373ffffffffffffffffffffffffffffffffffffffff161462000232576040517f08c379a0000000000000000000000000000000000000000000000000000000008152600401620002299062000824565b60405180910390fd5b60016000808373ffffffffffffffffffffffffffffffffffffffff1673ffffffffffffffffffffffffffffffffffffffff16815260200190815260200160002060000160006101000a81548160ff02191690831515021790555060008060008373ffffffffffffffffffffffffffffffffffffffff1673ffffffffffffffffffffffffffffffffffffffff16815260200190815260200160002060000160016101000a81548160ff02191690831515021790555050565b60008282604051620002fb9062000484565b6200030892919062000857565b604051809103906000f08015801562000325573d6000803e3d6000fd5b5090506001819080600181540180825580915050600190039060005260206000200160009091909190916101000a81548173ffffffffffffffffffffffffffffffffffffffff021916908373ffffffffffffffffffffffffffffffffffffffff160217905550505050565b600260009054906101000a900473ffffffffffffffffffffffffffffffffffffffff1681565b606060018054806020026020016040519081016040528092919081815260200182805480156200043c57602002820191906000526020600020905b8160009054906101000a900473ffffffffffffffffffffffffffffffffffffffff1673ffffffffffffffffffffffffffffffffffffffff1681526020019060010190808311620003f1575b5050505050905090565b60006020528060005260406000206000915090508060000160009054906101000a900460ff16908060000160019054906101000a900460ff16905082565b613d72806200088583390190565b600080fd5b6000819050919050565b620004ac8162000497565b8114620004b857600080fd5b50565b600081359050620004cc81620004a1565b92915050565b600060208284031215620004eb57620004ea62000492565b5b6000620004fb84828501620004bb565b91505092915050565b600073ffffffffffffffffffffffffffffffffffffffff82169050919050565b6000620005318262000504565b9050919050565b620005438162000524565b82525050565b600060208201905062000560600083018462000538565b92915050565b6000620005738262000504565b9050919050565b620005858162000566565b81146200059157600080fd5b50565b600081359050620005a5816200057a565b92915050565b600060208284031215620005c457620005c362000492565b5b6000620005d48482850162000594565b91505092915050565b620005e88162000524565b8114620005f457600080fd5b50565b6000813590506200060881620005dd565b92915050565b6000806040838503121562000628576200062762000492565b5b60006200063885828601620004bb565b92505060206200064b85828601620005f7565b9150509250929050565b600081519050919050565b600082825260208201905092915050565b6000819050602082019050919050565b6200068c8162000524565b82525050565b6000620006a0838362000681565b60208301905092915050565b6000602082019050919050565b6000620006c68262000655565b620006d2818562000660565b9350620006df8362000671565b8060005b8381101562000716578151620006fa888262000692565b97506200070783620006ac565b925050600181019050620006e3565b5085935050505092915050565b600060208201905081810360008301526200073f8184620006b9565b905092915050565b60006020828403121562000760576200075f62000492565b5b60006200077084828501620005f7565b91505092915050565b60008115159050919050565b620007908162000779565b82525050565b6000604082019050620007ad600083018562000785565b620007bc602083018462000785565b9392505050565b600082825260208201905092915050565b7f4f6e6c7920616363657369626c6520746f206f776e6572000000000000000000600082015250565b60006200080c601783620007c3565b91506200081982620007d4565b602082019050919050565b600060208201905081810360008301526200083f81620007fd565b9050919050565b620008518162000497565b82525050565b60006040820190506200086e600083018562000846565b6200087d602083018462000538565b939250505056fe60806040523480156200001157600080fd5b5060405162003d7238038062003d7283398181016040528101906200003791906200021a565b620000576200004b620000a760201b60201c565b620000af60201b60201c565b80600360006101000a81548173ffffffffffffffffffffffffffffffffffffffff021916908373ffffffffffffffffffffffffffffffffffffffff16021790555081600681905550505062000261565b600033905090565b6000600260009054906101000a900473ffffffffffffffffffffffffffffffffffffffff16905081600260006101000a81548173ffffffffffffffffffffffffffffffffffffffff021916908373ffffffffffffffffffffffffffffffffffffffff1602179055508173ffffffffffffffffffffffffffffffffffffffff168173ffffffffffffffffffffffffffffffffffffffff167f8be0079c531659141344cd1fd0a4f28419497f9722a3daafe3b4186f6b6457e060405160405180910390a35050565b600080fd5b6000819050919050565b6200018f816200017a565b81146200019b57600080fd5b50565b600081519050620001af8162000184565b92915050565b600073ffffffffffffffffffffffffffffffffffffffff82169050919050565b6000620001e282620001b5565b9050919050565b620001f481620001d5565b81146200020057600080fd5b50565b6000815190506200021481620001e9565b92915050565b6000806040838503121562000234576200023362000175565b5b600062000244858286016200019e565b9250506020620002578582860162000203565b9150509250929050565b613b0180620002716000396000f3fe608060405260043610620000fd5760003560e01c80638c803fc21162000097578063acb708151162000061578063acb708151462000317578063c79b4a8b1462000337578063f2fde38b1462000357578063fbfa77cf146200038557620000fd565b80638c803fc214620002545780638da5cb5b146200027457806397c3ccd814620002a4578063a87430ba14620002d257620000fd565b806333194c0a11620000d957806333194c0a146200019657806364bb057f14620001c6578063715018a6146200020a57806376cdb03b146200022457620000fd565b806285ae2b1462000102578063282303b514620001465780632c4e722e1462000166575b600080fd5b3480156200010f57600080fd5b506200012e60048036038101906200012891906200164e565b620003b5565b6040516200013d9190620016c5565b60405180910390f35b6200016460048036038101906200015e91906200164e565b620003f5565b005b3480156200017357600080fd5b506200017e620005ac565b6040516200018d9190620016f3565b60405180910390f35b348015620001a357600080fd5b50620001ae620005b2565b604051620001bd9190620016c5565b60405180910390f35b348015620001d357600080fd5b50620001f26004803603810190620001ec91906200164e565b620005d8565b604051620002019190620016f3565b60405180910390f35b3480156200021757600080fd5b506200022262000687565b005b3480156200023157600080fd5b506200023c6200069f565b6040516200024b9190620016c5565b60405180910390f35b6200027260048036038101906200026c91906200164e565b620006c5565b005b3480156200028157600080fd5b506200028c62000b93565b6040516200029b9190620016c5565b60405180910390f35b348015620002b157600080fd5b50620002d06004803603810190620002ca919062001741565b62000bbd565b005b348015620002df57600080fd5b50620002fe6004803603810190620002f8919062001741565b62000e46565b6040516200030e92919062001790565b60405180910390f35b6200033560048036038101906200032f9190620017bd565b62000e84565b005b6200035560048036038101906200034f9190620017bd565b620011ab565b005b3480156200036457600080fd5b506200038360048036038101906200037d919062001741565b620013fd565b005b3480156200039257600080fd5b506200039d62001487565b604051620003ac91906200186f565b60405180910390f35b60018181548110620003c657600080fd5b906000526020600020016000915054906101000a900473ffffffffffffffffffffffffffffffffffffffff1681565b6000803373ffffffffffffffffffffffffffffffffffffffff1673ffffffffffffffffffffffffffffffffffffffff16815260200190815260200160002060000160019054906101000a900460ff161562000487576040517f08c379a00000000000000000000000000000000000000000000000000000000081526004016200047e90620018ed565b60405180910390fd5b6000803373ffffffffffffffffffffffffffffffffffffffff1673ffffffffffffffffffffffffffffffffffffffff16815260200190815260200160002060000160009054906101000a900460ff1662000518576040517f08c379a00000000000000000000000000000000000000000000000000000000081526004016200050f906200195f565b60405180910390fd5b600560009054906101000a900473ffffffffffffffffffffffffffffffffffffffff1673ffffffffffffffffffffffffffffffffffffffff1663d96a094a826040518263ffffffff1660e01b8152600401620005759190620016f3565b600060405180830381600087803b1580156200059057600080fd5b505af1158015620005a5573d6000803e3d6000fd5b5050505050565b60065481565b600560009054906101000a900473ffffffffffffffffffffffffffffffffffffffff1681565b600080600460009054906101000a900473ffffffffffffffffffffffffffffffffffffffff1673ffffffffffffffffffffffffffffffffffffffff1663d84549d76040518163ffffffff1660e01b8152600401602060405180830381865afa15801562000649573d6000803e3d6000fd5b505050506040513d601f19601f820116820180604052508101906200066f919062001998565b905080836200067f9190620019f9565b915050919050565b62000691620014ad565b6200069d600062001532565b565b600360009054906101000a900473ffffffffffffffffffffffffffffffffffffffff1681565b6000803373ffffffffffffffffffffffffffffffffffffffff1673ffffffffffffffffffffffffffffffffffffffff16815260200190815260200160002060000160019054906101000a900460ff161562000757576040517f08c379a00000000000000000000000000000000000000000000000000000000081526004016200074e90620018ed565b60405180910390fd5b6000803373ffffffffffffffffffffffffffffffffffffffff1673ffffffffffffffffffffffffffffffffffffffff16815260200190815260200160002060000160009054906101000a900460ff16620007e8576040517f08c379a0000000000000000000000000000000000000000000000000000000008152600401620007df906200195f565b60405180910390fd5b6000808181604051620007fb9062001600565b6200080892919062001a8e565b604051809103906000f08015801562000825573d6000803e3d6000fd5b50600560006101000a81548173ffffffffffffffffffffffffffffffffffffffff021916908373ffffffffffffffffffffffffffffffffffffffff160217905550600560009054906101000a900473ffffffffffffffffffffffffffffffffffffffff1673ffffffffffffffffffffffffffffffffffffffff16631d0867206006546040518263ffffffff1660e01b8152600401620008c59190620016f3565b600060405180830381600087803b158015620008e057600080fd5b505af1158015620008f5573d6000803e3d6000fd5b50505050600560009054906101000a900473ffffffffffffffffffffffffffffffffffffffff1673ffffffffffffffffffffffffffffffffffffffff1663b6b55f25846040518263ffffffff1660e01b8152600401620009569190620016f3565b600060405180830381600087803b1580156200097157600080fd5b505af115801562000986573d6000803e3d6000fd5b505050506040518060800160405280600360009054906101000a900473ffffffffffffffffffffffffffffffffffffffff1673ffffffffffffffffffffffffffffffffffffffff1681526020016006548152602001600285620009ea919062001aea565b81526020016301e1338042606460065462000a06919062001aea565b600162000a14919062001b22565b8762000a219190620019f9565b62000a2d9190620019f9565b62000a39919062001aea565b815250600760003373ffffffffffffffffffffffffffffffffffffffff1673ffffffffffffffffffffffffffffffffffffffff16815260200190815260200160002060008201518160000160006101000a81548173ffffffffffffffffffffffffffffffffffffffff021916908373ffffffffffffffffffffffffffffffffffffffff1602179055506020820151816001015560408201518160020155606082015181600301559050503373ffffffffffffffffffffffffffffffffffffffff16600360009054906101000a900473ffffffffffffffffffffffffffffffffffffffff1673ffffffffffffffffffffffffffffffffffffffff167f9afa2c8f6e7be0e3a5f33564dbefa97369bec16d242f1e68314049c69554e58e60065460028762000b66919062001aea565b60028862000b75919062001aea565b60405162000b869392919062001b5d565b60405180910390a3505050565b6000600260009054906101000a900473ffffffffffffffffffffffffffffffffffffffff16905090565b600360009054906101000a900473ffffffffffffffffffffffffffffffffffffffff1673ffffffffffffffffffffffffffffffffffffffff163373ffffffffffffffffffffffffffffffffffffffff161462000c50576040517f08c379a000000000000000000000000000000000000000000000000000000000815260040162000c479062001bea565b60405180910390fd5b600a600760008373ffffffffffffffffffffffffffffffffffffffff1673ffffffffffffffffffffffffffffffffffffffff16815260200190815260200160002060020154600962000ca39190620019f9565b62000caf919062001aea565b600760008373ffffffffffffffffffffffffffffffffffffffff1673ffffffffffffffffffffffffffffffffffffffff16815260200190815260200160002060030154101562000d36576040517f08c379a000000000000000000000000000000000000000000000000000000000815260040162000d2d9062001c5c565b60405180910390fd5b60016000808373ffffffffffffffffffffffffffffffffffffffff1673ffffffffffffffffffffffffffffffffffffffff16815260200190815260200160002060000160016101000a81548160ff021916908315150217905550600560009054906101000a900473ffffffffffffffffffffffffffffffffffffffff1673ffffffffffffffffffffffffffffffffffffffff16630cd865ec600360009054906101000a900473ffffffffffffffffffffffffffffffffffffffff166040518263ffffffff1660e01b815260040162000e0f9190620016c5565b600060405180830381600087803b15801562000e2a57600080fd5b505af115801562000e3f573d6000803e3d6000fd5b5050505050565b60006020528060005260406000206000915090508060000160009054906101000a900460ff16908060000160019054906101000a900460ff16905082565b6000803373ffffffffffffffffffffffffffffffffffffffff1673ffffffffffffffffffffffffffffffffffffffff16815260200190815260200160002060000160019054906101000a900460ff161562000f16576040517f08c379a000000000000000000000000000000000000000000000000000000000815260040162000f0d90620018ed565b60405180910390fd5b6000803373ffffffffffffffffffffffffffffffffffffffff1673ffffffffffffffffffffffffffffffffffffffff16815260200190815260200160002060000160009054906101000a900460ff1662000fa7576040517f08c379a000000000000000000000000000000000000000000000000000000000815260040162000f9e906200195f565b60405180910390fd5b600560009054906101000a900473ffffffffffffffffffffffffffffffffffffffff1673ffffffffffffffffffffffffffffffffffffffff1662f714ce83836040518363ffffffff1660e01b81526004016200100592919062001c7e565b600060405180830381600087803b1580156200102057600080fd5b505af115801562001035573d6000803e3d6000fd5b5050505081600760003373ffffffffffffffffffffffffffffffffffffffff1673ffffffffffffffffffffffffffffffffffffffff16815260200190815260200160002060030160008282546200108d919062001cab565b925050819055503373ffffffffffffffffffffffffffffffffffffffff16600360009054906101000a900473ffffffffffffffffffffffffffffffffffffffff1673ffffffffffffffffffffffffffffffffffffffff167f9afa2c8f6e7be0e3a5f33564dbefa97369bec16d242f1e68314049c69554e58e600654600760003373ffffffffffffffffffffffffffffffffffffffff1673ffffffffffffffffffffffffffffffffffffffff16815260200190815260200160002060020154600760003373ffffffffffffffffffffffffffffffffffffffff1673ffffffffffffffffffffffffffffffffffffffff168152602001908152602001600020600301546040516200119f9392919062001b5d565b60405180910390a35050565b6000803373ffffffffffffffffffffffffffffffffffffffff1673ffffffffffffffffffffffffffffffffffffffff16815260200190815260200160002060000160019054906101000a900460ff16156200123d576040517f08c379a00000000000000000000000000000000000000000000000000000000081526004016200123490620018ed565b60405180910390fd5b6000803373ffffffffffffffffffffffffffffffffffffffff1673ffffffffffffffffffffffffffffffffffffffff16815260200190815260200160002060000160009054906101000a900460ff16620012ce576040517f08c379a0000000000000000000000000000000000000000000000000000000008152600401620012c5906200195f565b60405180910390fd5b600115156000808373ffffffffffffffffffffffffffffffffffffffff1673ffffffffffffffffffffffffffffffffffffffff16815260200190815260200160002060000160009054906101000a900460ff1615151462001366576040517f08c379a00000000000000000000000000000000000000000000000000000000081526004016200135d906200195f565b60405180910390fd5b600560009054906101000a900473ffffffffffffffffffffffffffffffffffffffff1673ffffffffffffffffffffffffffffffffffffffff1663785d04f583836040518363ffffffff1660e01b8152600401620013c592919062001c7e565b600060405180830381600087803b158015620013e057600080fd5b505af1158015620013f5573d6000803e3d6000fd5b505050505050565b62001407620014ad565b600073ffffffffffffffffffffffffffffffffffffffff168173ffffffffffffffffffffffffffffffffffffffff160362001479576040517f08c379a0000000000000000000000000000000000000000000000000000000008152600401620014709062001d5c565b60405180910390fd5b620014848162001532565b50565b600460009054906101000a900473ffffffffffffffffffffffffffffffffffffffff1681565b620014b7620015f8565b73ffffffffffffffffffffffffffffffffffffffff16620014d762000b93565b73ffffffffffffffffffffffffffffffffffffffff161462001530576040517f08c379a0000000000000000000000000000000000000000000000000000000008152600401620015279062001dce565b60405180910390fd5b565b6000600260009054906101000a900473ffffffffffffffffffffffffffffffffffffffff16905081600260006101000a81548173ffffffffffffffffffffffffffffffffffffffff021916908373ffffffffffffffffffffffffffffffffffffffff1602179055508173ffffffffffffffffffffffffffffffffffffffff168173ffffffffffffffffffffffffffffffffffffffff167f8be0079c531659141344cd1fd0a4f28419497f9722a3daafe3b4186f6b6457e060405160405180910390a35050565b600033905090565b611cdb8062001df183390190565b600080fd5b6000819050919050565b620016288162001613565b81146200163457600080fd5b50565b60008135905062001648816200161d565b92915050565b6000602082840312156200166757620016666200160e565b5b6000620016778482850162001637565b91505092915050565b600073ffffffffffffffffffffffffffffffffffffffff82169050919050565b6000620016ad8262001680565b9050919050565b620016bf81620016a0565b82525050565b6000602082019050620016dc6000830184620016b4565b92915050565b620016ed8162001613565b82525050565b60006020820190506200170a6000830184620016e2565b92915050565b6200171b81620016a0565b81146200172757600080fd5b50565b6000813590506200173b8162001710565b92915050565b6000602082840312156200175a57620017596200160e565b5b60006200176a848285016200172a565b91505092915050565b60008115159050919050565b6200178a8162001773565b82525050565b6000604082019050620017a760008301856200177f565b620017b660208301846200177f565b9392505050565b60008060408385031215620017d757620017d66200160e565b5b6000620017e78582860162001637565b9250506020620017fa858286016200172a565b9150509250929050565b6000819050919050565b60006200182f62001829620018238462001680565b62001804565b62001680565b9050919050565b600062001843826200180e565b9050919050565b6000620018578262001836565b9050919050565b62001869816200184a565b82525050565b60006020820190506200188660008301846200185e565b92915050565b600082825260208201905092915050565b7f426c61636b6c6973746564000000000000000000000000000000000000000000600082015250565b6000620018d5600b836200188c565b9150620018e2826200189d565b602082019050919050565b600060208201905081810360008301526200190881620018c6565b9050919050565b7f55736572206e6f7420666f756e64000000000000000000000000000000000000600082015250565b600062001947600e836200188c565b915062001954826200190f565b602082019050919050565b600060208201905081810360008301526200197a8162001938565b9050919050565b60008151905062001992816200161d565b92915050565b600060208284031215620019b157620019b06200160e565b5b6000620019c18482850162001981565b91505092915050565b7f4e487b7100000000000000000000000000000000000000000000000000000000600052601160045260246000fd5b600062001a068262001613565b915062001a138362001613565b925082820262001a238162001613565b9150828204841483151762001a3d5762001a3c620019ca565b5b5092915050565b600062001a518262001836565b9050919050565b62001a638162001a44565b82525050565b600062001a768262001836565b9050919050565b62001a888162001a69565b82525050565b600060408201905062001aa5600083018562001a58565b62001ab4602083018462001a7d565b9392505050565b7f4e487b7100000000000000000000000000000000000000000000000000000000600052601260045260246000fd5b600062001af78262001613565b915062001b048362001613565b92508262001b175762001b1662001abb565b5b828204905092915050565b600062001b2f8262001613565b915062001b3c8362001613565b925082820190508082111562001b575762001b56620019ca565b5b92915050565b600060608201905062001b746000830186620016e2565b62001b836020830185620016e2565b62001b926040830184620016e2565b949350505050565b7f4f6e6c7920617070726f7665642062792062616e6b0000000000000000000000600082015250565b600062001bd26015836200188c565b915062001bdf8262001b9a565b602082019050919050565b6000602082019050818103600083015262001c058162001bc3565b9050919050565b7f55736572206e6f7420612064656661756c746572000000000000000000000000600082015250565b600062001c446014836200188c565b915062001c518262001c0c565b602082019050919050565b6000602082019050818103600083015262001c778162001c35565b9050919050565b600060408201905062001c956000830185620016e2565b62001ca46020830184620016b4565b9392505050565b600062001cb88262001613565b915062001cc58362001613565b925082820390508181111562001ce05762001cdf620019ca565b5b92915050565b7f4f776e61626c653a206e6577206f776e657220697320746865207a65726f206160008201527f6464726573730000000000000000000000000000000000000000000000000000602082015250565b600062001d446026836200188c565b915062001d518262001ce6565b604082019050919050565b6000602082019050818103600083015262001d778162001d35565b9050919050565b7f4f776e61626c653a2063616c6c6572206973206e6f7420746865206f776e6572600082015250565b600062001db66020836200188c565b915062001dc38262001d7e565b602082019050919050565b6000602082019050818103600083015262001de98162001da7565b905091905056fe60806040523480156200001157600080fd5b5060405162001cdb38038062001cdb833981810160405281019062000037919062000270565b620000576200004b620000e160201b60201c565b620000e960201b60201c565b81600260006101000a81548173ffffffffffffffffffffffffffffffffffffffff021916908373ffffffffffffffffffffffffffffffffffffffff16021790555080600360006101000a81548173ffffffffffffffffffffffffffffffffffffffff021916908373ffffffffffffffffffffffffffffffffffffffff1602179055505050620002b7565b600033905090565b60008060009054906101000a900473ffffffffffffffffffffffffffffffffffffffff169050816000806101000a81548173ffffffffffffffffffffffffffffffffffffffff021916908373ffffffffffffffffffffffffffffffffffffffff1602179055508173ffffffffffffffffffffffffffffffffffffffff168173ffffffffffffffffffffffffffffffffffffffff167f8be0079c531659141344cd1fd0a4f28419497f9722a3daafe3b4186f6b6457e060405160405180910390a35050565b600080fd5b600073ffffffffffffffffffffffffffffffffffffffff82169050919050565b6000620001df82620001b2565b9050919050565b6000620001f382620001d2565b9050919050565b6200020581620001e6565b81146200021157600080fd5b50565b6000815190506200022581620001fa565b92915050565b60006200023882620001d2565b9050919050565b6200024a816200022b565b81146200025657600080fd5b50565b6000815190506200026a816200023f565b92915050565b600080604083850312156200028a5762000289620001ad565b5b60006200029a8582860162000214565b9250506020620002ad8582860162000259565b9150509250929050565b611a1480620002c76000396000f3fe6080604052600436106101085760003560e01c80637adbf97311610095578063b6b55f2511610064578063b6b55f2514610354578063d84549d714610370578063d96a094a1461039b578063f2fde38b146103b7578063fc0c546a146103e057610108565b80637adbf973146102aa578063833b1fce146102d357806383bebced146102fe5780638da5cb5b1461032957610108565b80631d086720116100dc5780631d086720146101d957806321df0da71461020257806356bfdaf51461022d578063715018a61461026a578063785d04f51461028157610108565b8062f714ce1461010d5780630cd865ec146101365780630eb9af381461015f5780631b05ab791461019c575b600080fd5b34801561011957600080fd5b50610134600480360381019061012f919061125d565b61040b565b005b34801561014257600080fd5b5061015d6004803603810190610158919061129d565b61087a565b005b34801561016b57600080fd5b506101866004803603810190610181919061129d565b610906565b6040516101939190611308565b60405180910390f35b3480156101a857600080fd5b506101c360048036038101906101be9190611323565b610973565b6040516101d0919061135f565b60405180910390f35b3480156101e557600080fd5b5061020060048036038101906101fb9190611323565b61098f565b005b34801561020e57600080fd5b50610217610999565b6040516102249190611389565b60405180910390f35b34801561023957600080fd5b50610254600480360381019061024f9190611323565b6109c3565b604051610261919061135f565b60405180910390f35b34801561027657600080fd5b5061027f6109df565b005b34801561028d57600080fd5b506102a860048036038101906102a3919061125d565b6109f3565b005b3480156102b657600080fd5b506102d160048036038101906102cc919061129d565b610b39565b005b3480156102df57600080fd5b506102e8610b85565b6040516102f59190611389565b60405180910390f35b34801561030a57600080fd5b50610313610baf565b604051610320919061135f565b60405180910390f35b34801561033557600080fd5b5061033e610bb5565b60405161034b9190611389565b60405180910390f35b61036e60048036038101906103699190611323565b610bde565b005b34801561037c57600080fd5b50610385610e12565b604051610392919061135f565b60405180910390f35b6103b560048036038101906103b09190611323565b610ebf565b005b3480156103c357600080fd5b506103de60048036038101906103d9919061129d565b610fb7565b005b3480156103ec57600080fd5b506103f561103a565b6040516104029190611403565b60405180910390f35b600a600160003373ffffffffffffffffffffffffffffffffffffffff1673ffffffffffffffffffffffffffffffffffffffff16815260200190815260200160002060000154600961045c919061144d565b61046691906114be565b600160003373ffffffffffffffffffffffffffffffffffffffff1673ffffffffffffffffffffffffffffffffffffffff16815260200190815260200160002060010154106104e9576040517f08c379a00000000000000000000000000000000000000000000000000000000081526004016104e09061154c565b60405180910390fd5b4260646004546104f991906114be565b6001610505919061156c565b6303c26700600160003373ffffffffffffffffffffffffffffffffffffffff1673ffffffffffffffffffffffffffffffffffffffff16815260200190815260200160002060010154610557919061144d565b61056191906114be565b61056b919061144d565b8211156105ad576040517f08c379a00000000000000000000000000000000000000000000000000000000081526004016105a4906115ec565b60405180910390fd5b81600260009054906101000a900473ffffffffffffffffffffffffffffffffffffffff1673ffffffffffffffffffffffffffffffffffffffff166370a08231336040518263ffffffff1660e01b81526004016106099190611389565b602060405180830381865afa158015610626573d6000803e3d6000fd5b505050506040513d601f19601f8201168201806040525081019061064a9190611621565b101561068b576040517f08c379a00000000000000000000000000000000000000000000000000000000081526004016106829061169a565b60405180910390fd5b6000610695610e12565b836106a091906114be565b9050600260009054906101000a900473ffffffffffffffffffffffffffffffffffffffff1673ffffffffffffffffffffffffffffffffffffffff16639dc29fac33856040518363ffffffff1660e01b81526004016106ff9291906116ba565b6020604051808303816000875af115801561071e573d6000803e3d6000fd5b505050506040513d601f19601f82011682018060405250810190610742919061171b565b5080600160003373ffffffffffffffffffffffffffffffffffffffff1673ffffffffffffffffffffffffffffffffffffffff16815260200190815260200160002060000160008282546107959190611748565b9250508190555082600160003373ffffffffffffffffffffffffffffffffffffffff1673ffffffffffffffffffffffffffffffffffffffff16815260200190815260200160002060010160008282546107ee9190611748565b925050819055508173ffffffffffffffffffffffffffffffffffffffff166108fc829081150290604051600060405180830381858888f1935050505015801561083b573d6000803e3d6000fd5b507f56ca301a9219608c91e7bcee90e083c19671d2cdcc96752c7af291cee5f9c8c8818460405161086d92919061177c565b60405180910390a1505050565b8073ffffffffffffffffffffffffffffffffffffffff166108fc600160003373ffffffffffffffffffffffffffffffffffffffff1673ffffffffffffffffffffffffffffffffffffffff168152602001908152602001600020600001549081150290604051600060405180830381858888f19350505050158015610902573d6000803e3d6000fd5b5050565b61090e6111aa565b600160008373ffffffffffffffffffffffffffffffffffffffff1673ffffffffffffffffffffffffffffffffffffffff168152602001908152602001600020604051806040016040529081600082015481526020016001820154815250509050919050565b600061097d610e12565b82610988919061144d565b9050919050565b8060048190555050565b6000600260009054906101000a900473ffffffffffffffffffffffffffffffffffffffff16905090565b60006109cd610e12565b826109d891906114be565b9050919050565b6109e7611060565b6109f160006110de565b565b600260009054906101000a900473ffffffffffffffffffffffffffffffffffffffff1673ffffffffffffffffffffffffffffffffffffffff16639dc29fac33846040518363ffffffff1660e01b8152600401610a509291906116ba565b6020604051808303816000875af1158015610a6f573d6000803e3d6000fd5b505050506040513d601f19601f82011682018060405250810190610a93919061171b565b50600260009054906101000a900473ffffffffffffffffffffffffffffffffffffffff1673ffffffffffffffffffffffffffffffffffffffff166340c10f1982846040518363ffffffff1660e01b8152600401610af19291906116ba565b6020604051808303816000875af1158015610b10573d6000803e3d6000fd5b505050506040513d601f19601f82011682018060405250810190610b34919061171b565b505050565b610b41611060565b80600360006101000a81548173ffffffffffffffffffffffffffffffffffffffff021916908373ffffffffffffffffffffffffffffffffffffffff16021790555050565b6000600360009054906101000a900473ffffffffffffffffffffffffffffffffffffffff16905090565b60045481565b60008060009054906101000a900473ffffffffffffffffffffffffffffffffffffffff16905090565b348114610c20576040517f08c379a0000000000000000000000000000000000000000000000000000000008152600401610c17906117f1565b60405180910390fd5b60006002610c2c610e12565b83610c37919061144d565b610c4191906114be565b9050600260009054906101000a900473ffffffffffffffffffffffffffffffffffffffff1673ffffffffffffffffffffffffffffffffffffffff166340c10f1933836040518363ffffffff1660e01b8152600401610ca09291906116ba565b6020604051808303816000875af1158015610cbf573d6000803e3d6000fd5b505050506040513d601f19601f82011682018060405250810190610ce3919061171b565b5081600160003373ffffffffffffffffffffffffffffffffffffffff1673ffffffffffffffffffffffffffffffffffffffff1681526020019081526020016000206000016000828254610d36919061156c565b925050819055506301e13380426064600454610d5291906114be565b6001610d5e919061156c565b83610d69919061144d565b610d73919061144d565b610d7d91906114be565b600160003373ffffffffffffffffffffffffffffffffffffffff1673ffffffffffffffffffffffffffffffffffffffff1681526020019081526020016000206001016000828254610dce919061156c565b925050819055507fa3af609bf46297028ce551832669030f9effef2b02606d02cbbcc40fe6b47c558282604051610e0692919061177c565b60405180910390a15050565b600080600360009054906101000a900473ffffffffffffffffffffffffffffffffffffffff1673ffffffffffffffffffffffffffffffffffffffff16638e15f4736040518163ffffffff1660e01b8152600401602060405180830381865afa158015610e82573d6000803e3d6000fd5b505050506040513d601f19601f82011682018060405250810190610ea69190611847565b90506402540be40081610eb9919061144d565b91505090565b348114610f01576040517f08c379a0000000000000000000000000000000000000000000000000000000008152600401610ef8906118c0565b60405180910390fd5b600260009054906101000a900473ffffffffffffffffffffffffffffffffffffffff1673ffffffffffffffffffffffffffffffffffffffff166340c10f1933610f48610e12565b84610f53919061144d565b6040518363ffffffff1660e01b8152600401610f709291906116ba565b6020604051808303816000875af1158015610f8f573d6000803e3d6000fd5b505050506040513d601f19601f82011682018060405250810190610fb3919061171b565b5050565b610fbf611060565b600073ffffffffffffffffffffffffffffffffffffffff168173ffffffffffffffffffffffffffffffffffffffff160361102e576040517f08c379a000000000000000000000000000000000000000000000000000000000815260040161102590611952565b60405180910390fd5b611037816110de565b50565b600260009054906101000a900473ffffffffffffffffffffffffffffffffffffffff1681565b6110686111a2565b73ffffffffffffffffffffffffffffffffffffffff16611086610bb5565b73ffffffffffffffffffffffffffffffffffffffff16146110dc576040517f08c379a00000000000000000000000000000000000000000000000000000000081526004016110d3906119be565b60405180910390fd5b565b60008060009054906101000a900473ffffffffffffffffffffffffffffffffffffffff169050816000806101000a81548173ffffffffffffffffffffffffffffffffffffffff021916908373ffffffffffffffffffffffffffffffffffffffff1602179055508173ffffffffffffffffffffffffffffffffffffffff168173ffffffffffffffffffffffffffffffffffffffff167f8be0079c531659141344cd1fd0a4f28419497f9722a3daafe3b4186f6b6457e060405160405180910390a35050565b600033905090565b604051806040016040528060008152602001600081525090565b600080fd5b6000819050919050565b6111dc816111c9565b81146111e757600080fd5b50565b6000813590506111f9816111d3565b92915050565b600073ffffffffffffffffffffffffffffffffffffffff82169050919050565b600061122a826111ff565b9050919050565b61123a8161121f565b811461124557600080fd5b50565b60008135905061125781611231565b92915050565b60008060408385031215611274576112736111c4565b5b6000611282858286016111ea565b925050602061129385828601611248565b9150509250929050565b6000602082840312156112b3576112b26111c4565b5b60006112c184828501611248565b91505092915050565b6112d3816111c9565b82525050565b6040820160008201516112ef60008501826112ca565b50602082015161130260208501826112ca565b50505050565b600060408201905061131d60008301846112d9565b92915050565b600060208284031215611339576113386111c4565b5b6000611347848285016111ea565b91505092915050565b611359816111c9565b82525050565b60006020820190506113746000830184611350565b92915050565b6113838161121f565b82525050565b600060208201905061139e600083018461137a565b92915050565b6000819050919050565b60006113c96113c46113bf846111ff565b6113a4565b6111ff565b9050919050565b60006113db826113ae565b9050919050565b60006113ed826113d0565b9050919050565b6113fd816113e2565b82525050565b600060208201905061141860008301846113f4565b92915050565b7f4e487b7100000000000000000000000000000000000000000000000000000000600052601160045260246000fd5b6000611458826111c9565b9150611463836111c9565b9250828202611471816111c9565b915082820484148315176114885761148761141e565b5b5092915050565b7f4e487b7100000000000000000000000000000000000000000000000000000000600052601260045260246000fd5b60006114c9826111c9565b91506114d4836111c9565b9250826114e4576114e361148f565b5b828204905092915050565b600082825260208201905092915050565b7f77697468647261776c2074696d65206f76657200000000000000000000000000600082015250565b60006115366013836114ef565b915061154182611500565b602082019050919050565b6000602082019050818103600083015261156581611529565b9050919050565b6000611577826111c9565b9150611582836111c9565b925082820190508082111561159a5761159961141e565b5b92915050565b7f7769746864726177206c696d6974206578636565646564000000000000000000600082015250565b60006115d66017836114ef565b91506115e1826115a0565b602082019050919050565b60006020820190508181036000830152611605816115c9565b9050919050565b60008151905061161b816111d3565b92915050565b600060208284031215611637576116366111c4565b5b60006116458482850161160c565b91505092915050565b7f6e6f7420656e6f75676820746f6b656e7320696e2062616c616e636500000000600082015250565b6000611684601c836114ef565b915061168f8261164e565b602082019050919050565b600060208201905081810360008301526116b381611677565b9050919050565b60006040820190506116cf600083018561137a565b6116dc6020830184611350565b9392505050565b60008115159050919050565b6116f8816116e3565b811461170357600080fd5b50565b600081519050611715816116ef565b92915050565b600060208284031215611731576117306111c4565b5b600061173f84828501611706565b91505092915050565b6000611753826111c9565b915061175e836111c9565b92508282039050818111156117765761177561141e565b5b92915050565b60006040820190506117916000830185611350565b61179e6020830184611350565b9392505050565b7f696e636f72726563742045544820616d6f756e74000000000000000000000000600082015250565b60006117db6014836114ef565b91506117e6826117a5565b602082019050919050565b6000602082019050818103600083015261180a816117ce565b9050919050565b6000819050919050565b61182481611811565b811461182f57600080fd5b50565b6000815190506118418161181b565b92915050565b60006020828403121561185d5761185c6111c4565b5b600061186b84828501611832565b91505092915050565b7f496e636f727265637420416d6f756e7400000000000000000000000000000000600082015250565b60006118aa6010836114ef565b91506118b582611874565b602082019050919050565b600060208201905081810360008301526118d98161189d565b9050919050565b7f4f776e61626c653a206e6577206f776e657220697320746865207a65726f206160008201527f6464726573730000000000000000000000000000000000000000000000000000602082015250565b600061193c6026836114ef565b9150611947826118e0565b604082019050919050565b6000602082019050818103600083015261196b8161192f565b9050919050565b7f4f776e61626c653a2063616c6c6572206973206e6f7420746865206f776e6572600082015250565b60006119a86020836114ef565b91506119b382611972565b602082019050919050565b600060208201905081810360008301526119d78161199b565b905091905056fea2646970667358221220f5786b04dfcaa77f96d4af8bc3f7e610db73aa671344d26fc076dc24200b293e64736f6c63430008110033a2646970667358221220b39f439832520ac1d51f2d4aaa8b2fca29619fb13209458ffa09f861cc4a89c064736f6c63430008110033a2646970667358221220a9ad84d0a7a8df5268634add07e4b3030c3acf73f19c018b654db0c8dcf34bff64736f6c63430008110033",
  "linkReferences": {},
  "deployedLinkReferences": {}
}