{
  "_format": "hh-sol-artifact-1",
  "contractName": "Store",
  "sourceName": "src/backend/contracts/Store.sol",
  "abi": [
    {
      "inputs": [
        {
          "internalType": "uint256",
          "name": "",
          "type": "uint256"
        }
      ],
      "name": "banks",
      "outputs": [
        {
          "internalType": "address",
          "name": "",
          "type": "address"
        }
      ],
      "stateMutability": "view",
      "type": "function"
    },
    {
      "inputs": [
        {
          "internalType": "address",
          "name": "",
          "type": "address"
        }
      ],
      "name": "users",
      "outputs": [
        {
          "internalType": "bool",
          "name": "kyc",
          "type": "bool"
        },
        {
          "internalType": "bool",
          "name": "blacklist",
          "type": "bool"
        }
      ],
      "stateMutability": "view",
      "type": "function"
    }
  ],
  "bytecode": "0x608060405234801561001057600080fd5b506102af806100206000396000f3fe608060405234801561001057600080fd5b50600436106100355760003560e01c806285ae2b1461003a578063a87430ba1461006a575b600080fd5b610054600480360381019061004f9190610153565b61009b565b60405161006191906101c1565b60405180910390f35b610084600480360381019061007f9190610208565b6100da565b604051610092929190610250565b60405180910390f35b600181815481106100ab57600080fd5b906000526020600020016000915054906101000a900473ffffffffffffffffffffffffffffffffffffffff1681565b60006020528060005260406000206000915090508060000160009054906101000a900460ff16908060000160019054906101000a900460ff16905082565b600080fd5b6000819050919050565b6101308161011d565b811461013b57600080fd5b50565b60008135905061014d81610127565b92915050565b60006020828403121561016957610168610118565b5b60006101778482850161013e565b91505092915050565b600073ffffffffffffffffffffffffffffffffffffffff82169050919050565b60006101ab82610180565b9050919050565b6101bb816101a0565b82525050565b60006020820190506101d660008301846101b2565b92915050565b6101e5816101a0565b81146101f057600080fd5b50565b600081359050610202816101dc565b92915050565b60006020828403121561021e5761021d610118565b5b600061022c848285016101f3565b91505092915050565b60008115159050919050565b61024a81610235565b82525050565b60006040820190506102656000830185610241565b6102726020830184610241565b939250505056fea2646970667358221220d56928bf348ef5d44ffe4b12d53bb01e3cfa4a59c763d0506d8d91c636d53aab64736f6c63430008110033",
  "linkReferences": {},
  "deployedLinkReferences": {}
}